{
  "_format": "hh-sol-artifact-1",
  "contractName": "RoboPunksNFT",
  "sourceName": "contracts/RoboPunksNFT.sol",
  "abi": [
    {
      "inputs": [],
      "stateMutability": "payable",
      "type": "constructor"
    },
    {
      "anonymous": false,
      "inputs": [
        {
          "indexed": true,
          "internalType": "address",
          "name": "owner",
          "type": "address"
        },
        {
          "indexed": true,
          "internalType": "address",
          "name": "approved",
          "type": "address"
        },
        {
          "indexed": true,
          "internalType": "uint256",
          "name": "tokenId",
          "type": "uint256"
        }
      ],
      "name": "Approval",
      "type": "event"
    },
    {
      "anonymous": false,
      "inputs": [
        {
          "indexed": true,
          "internalType": "address",
          "name": "owner",
          "type": "address"
        },
        {
          "indexed": true,
          "internalType": "address",
          "name": "operator",
          "type": "address"
        },
        {
          "indexed": false,
          "internalType": "bool",
          "name": "approved",
          "type": "bool"
        }
      ],
      "name": "ApprovalForAll",
      "type": "event"
    },
    {
      "anonymous": false,
      "inputs": [
        {
          "indexed": true,
          "internalType": "address",
          "name": "previousOwner",
          "type": "address"
        },
        {
          "indexed": true,
          "internalType": "address",
          "name": "newOwner",
          "type": "address"
        }
      ],
      "name": "OwnershipTransferred",
      "type": "event"
    },
    {
      "anonymous": false,
      "inputs": [
        {
          "indexed": true,
          "internalType": "address",
          "name": "from",
          "type": "address"
        },
        {
          "indexed": true,
          "internalType": "address",
          "name": "to",
          "type": "address"
        },
        {
          "indexed": true,
          "internalType": "uint256",
          "name": "tokenId",
          "type": "uint256"
        }
      ],
      "name": "Transfer",
      "type": "event"
    },
    {
      "inputs": [
        {
          "internalType": "address",
          "name": "to",
          "type": "address"
        },
        {
          "internalType": "uint256",
          "name": "tokenId",
          "type": "uint256"
        }
      ],
      "name": "approve",
      "outputs": [],
      "stateMutability": "nonpayable",
      "type": "function"
    },
    {
      "inputs": [
        {
          "internalType": "address",
          "name": "owner",
          "type": "address"
        }
      ],
      "name": "balanceOf",
      "outputs": [
        {
          "internalType": "uint256",
          "name": "",
          "type": "uint256"
        }
      ],
      "stateMutability": "view",
      "type": "function"
    },
    {
      "inputs": [
        {
          "internalType": "uint256",
          "name": "tokenId",
          "type": "uint256"
        }
      ],
      "name": "getApproved",
      "outputs": [
        {
          "internalType": "address",
          "name": "",
          "type": "address"
        }
      ],
      "stateMutability": "view",
      "type": "function"
    },
    {
      "inputs": [
        {
          "internalType": "address",
          "name": "owner",
          "type": "address"
        },
        {
          "internalType": "address",
          "name": "operator",
          "type": "address"
        }
      ],
      "name": "isApprovedForAll",
      "outputs": [
        {
          "internalType": "bool",
          "name": "",
          "type": "bool"
        }
      ],
      "stateMutability": "view",
      "type": "function"
    },
    {
      "inputs": [],
      "name": "maxPerWallet",
      "outputs": [
        {
          "internalType": "uint256",
          "name": "",
          "type": "uint256"
        }
      ],
      "stateMutability": "view",
      "type": "function"
    },
    {
      "inputs": [],
      "name": "maxSupply",
      "outputs": [
        {
          "internalType": "uint256",
          "name": "",
          "type": "uint256"
        }
      ],
      "stateMutability": "view",
      "type": "function"
    },
    {
      "inputs": [
        {
          "internalType": "uint256",
          "name": "quantity_",
          "type": "uint256"
        }
      ],
      "name": "mint",
      "outputs": [],
      "stateMutability": "payable",
      "type": "function"
    },
    {
      "inputs": [],
      "name": "mintPrice",
      "outputs": [
        {
          "internalType": "uint256",
          "name": "",
          "type": "uint256"
        }
      ],
      "stateMutability": "view",
      "type": "function"
    },
    {
      "inputs": [],
      "name": "name",
      "outputs": [
        {
          "internalType": "string",
          "name": "",
          "type": "string"
        }
      ],
      "stateMutability": "view",
      "type": "function"
    },
    {
      "inputs": [],
      "name": "owner",
      "outputs": [
        {
          "internalType": "address",
          "name": "",
          "type": "address"
        }
      ],
      "stateMutability": "view",
      "type": "function"
    },
    {
      "inputs": [
        {
          "internalType": "uint256",
          "name": "tokenId",
          "type": "uint256"
        }
      ],
      "name": "ownerOf",
      "outputs": [
        {
          "internalType": "address",
          "name": "",
          "type": "address"
        }
      ],
      "stateMutability": "view",
      "type": "function"
    },
    {
      "inputs": [],
      "name": "renounceOwnership",
      "outputs": [],
      "stateMutability": "nonpayable",
      "type": "function"
    },
    {
      "inputs": [
        {
          "internalType": "address",
          "name": "from",
          "type": "address"
        },
        {
          "internalType": "address",
          "name": "to",
          "type": "address"
        },
        {
          "internalType": "uint256",
          "name": "tokenId",
          "type": "uint256"
        }
      ],
      "name": "safeTransferFrom",
      "outputs": [],
      "stateMutability": "nonpayable",
      "type": "function"
    },
    {
      "inputs": [
        {
          "internalType": "address",
          "name": "from",
          "type": "address"
        },
        {
          "internalType": "address",
          "name": "to",
          "type": "address"
        },
        {
          "internalType": "uint256",
          "name": "tokenId",
          "type": "uint256"
        },
        {
          "internalType": "bytes",
          "name": "_data",
          "type": "bytes"
        }
      ],
      "name": "safeTransferFrom",
      "outputs": [],
      "stateMutability": "nonpayable",
      "type": "function"
    },
    {
      "inputs": [
        {
          "internalType": "address",
          "name": "operator",
          "type": "address"
        },
        {
          "internalType": "bool",
          "name": "approved",
          "type": "bool"
        }
      ],
      "name": "setApprovalForAll",
      "outputs": [],
      "stateMutability": "nonpayable",
      "type": "function"
    },
    {
      "inputs": [
        {
          "internalType": "string",
          "name": "baseTokenUri_",
          "type": "string"
        }
      ],
      "name": "setBaseTokenUri",
      "outputs": [],
      "stateMutability": "nonpayable",
      "type": "function"
    },
    {
      "inputs": [
        {
          "internalType": "bool",
          "name": "isPublicMintEnabled_",
          "type": "bool"
        }
      ],
      "name": "setIsPublicMintEnabled",
      "outputs": [],
      "stateMutability": "nonpayable",
      "type": "function"
    },
    {
      "inputs": [
        {
          "internalType": "bytes4",
          "name": "interfaceId",
          "type": "bytes4"
        }
      ],
      "name": "supportsInterface",
      "outputs": [
        {
          "internalType": "bool",
          "name": "",
          "type": "bool"
        }
      ],
      "stateMutability": "view",
      "type": "function"
    },
    {
      "inputs": [],
      "name": "symbol",
      "outputs": [
        {
          "internalType": "string",
          "name": "",
          "type": "string"
        }
      ],
      "stateMutability": "view",
      "type": "function"
    },
    {
      "inputs": [
        {
          "internalType": "uint256",
          "name": "tokenId_",
          "type": "uint256"
        }
      ],
      "name": "tokenURI",
      "outputs": [
        {
          "internalType": "string",
          "name": "",
          "type": "string"
        }
      ],
      "stateMutability": "view",
      "type": "function"
    },
    {
      "inputs": [],
      "name": "totalSupply",
      "outputs": [
        {
          "internalType": "uint256",
          "name": "",
          "type": "uint256"
        }
      ],
      "stateMutability": "view",
      "type": "function"
    },
    {
      "inputs": [
        {
          "internalType": "address",
          "name": "from",
          "type": "address"
        },
        {
          "internalType": "address",
          "name": "to",
          "type": "address"
        },
        {
          "internalType": "uint256",
          "name": "tokenId",
          "type": "uint256"
        }
      ],
      "name": "transferFrom",
      "outputs": [],
      "stateMutability": "nonpayable",
      "type": "function"
    },
    {
      "inputs": [
        {
          "internalType": "address",
          "name": "newOwner",
          "type": "address"
        }
      ],
      "name": "transferOwnership",
      "outputs": [],
      "stateMutability": "nonpayable",
      "type": "function"
    },
    {
      "inputs": [
        {
          "internalType": "address",
          "name": "",
          "type": "address"
        }
      ],
      "name": "walletMints",
      "outputs": [
        {
          "internalType": "uint256",
          "name": "",
          "type": "uint256"
        }
      ],
      "stateMutability": "view",
      "type": "function"
    },
    {
      "inputs": [],
      "name": "withdraw",
      "outputs": [],
      "stateMutability": "nonpayable",
      "type": "function"
    },
    {
      "inputs": [],
      "name": "withdrawWallet",
      "outputs": [
        {
          "internalType": "address payable",
          "name": "",
          "type": "address"
        }
      ],
      "stateMutability": "view",
      "type": "function"
    }
  ],
  "bytecode": "0x60806040526040518060400160405280600981526020017f526f626f50756e6b7300000000000000000000000000000000000000000000008152506040518060400160405280600281526020017f525000000000000000000000000000000000000000000000000000000000000081525081600090805190602001906200008892919062000214565b508060019080519060200190620000a192919062000214565b505050620000c4620000b86200014660201b60201c565b6200014e60201b60201c565b66470de4df82000060078190555060006008819055506103e86009819055506003600a8190555073a6dcdea787b1de2ec2c43726e890b5686e3e479d600d60006101000a81548173ffffffffffffffffffffffffffffffffffffffff021916908373ffffffffffffffffffffffffffffffffffffffff16021790555062000329565b600033905090565b6000600660009054906101000a900473ffffffffffffffffffffffffffffffffffffffff16905081600660006101000a81548173ffffffffffffffffffffffffffffffffffffffff021916908373ffffffffffffffffffffffffffffffffffffffff1602179055508173ffffffffffffffffffffffffffffffffffffffff168173ffffffffffffffffffffffffffffffffffffffff167f8be0079c531659141344cd1fd0a4f28419497f9722a3daafe3b4186f6b6457e060405160405180910390a35050565b8280546200022290620002c4565b90600052602060002090601f01602090048101928262000246576000855562000292565b82601f106200026157805160ff191683800117855562000292565b8280016001018555821562000292579182015b828111156200029157825182559160200191906001019062000274565b5b509050620002a19190620002a5565b5090565b5b80821115620002c0576000816000905550600101620002a6565b5090565b60006002820490506001821680620002dd57607f821691505b60208210811415620002f457620002f3620002fa565b5b50919050565b7f4e487b7100000000000000000000000000000000000000000000000000000000600052602260045260246000fd5b61373a80620003396000396000f3fe6080604052600436106101815760003560e01c8063715018a6116100d1578063a22cb4651161008a578063d5abeb0111610064578063d5abeb011461054d578063e985e9c514610578578063f0293fd3146105b5578063f2fde38b146105f257610181565b8063a22cb465146104be578063b88d4fde146104e7578063c87b56dd1461051057610181565b8063715018a6146103e157806385d178f4146103f85780638da5cb5b1461042357806395652cfa1461044e57806395d89b4114610477578063a0712d68146104a257610181565b806323b872dd1161013e578063453c231011610118578063453c2310146103115780636352211e1461033c5780636817c76c1461037957806370a08231146103a457610181565b806323b872dd146102a85780633ccfd60b146102d157806342842e0e146102e857610181565b806301ffc9a71461018657806306fdde03146101c3578063081812fc146101ee578063095ea7b31461022b57806318160ddd146102545780632373ac221461027f575b600080fd5b34801561019257600080fd5b506101ad60048036038101906101a8919061243c565b61061b565b6040516101ba9190612a45565b60405180910390f35b3480156101cf57600080fd5b506101d86106fd565b6040516101e59190612a60565b60405180910390f35b3480156101fa57600080fd5b50610215600480360381019061021091906124d3565b61078f565b60405161022291906129c3565b60405180910390f35b34801561023757600080fd5b50610252600480360381019061024d91906123d7565b610814565b005b34801561026057600080fd5b5061026961092c565b6040516102769190612d22565b60405180910390f35b34801561028b57600080fd5b506102a660048036038101906102a19190612413565b610932565b005b3480156102b457600080fd5b506102cf60048036038101906102ca91906122d1565b6109cb565b005b3480156102dd57600080fd5b506102e6610a2b565b005b3480156102f457600080fd5b5061030f600480360381019061030a91906122d1565b610b78565b005b34801561031d57600080fd5b50610326610b98565b6040516103339190612d22565b60405180910390f35b34801561034857600080fd5b50610363600480360381019061035e91906124d3565b610b9e565b60405161037091906129c3565b60405180910390f35b34801561038557600080fd5b5061038e610c50565b60405161039b9190612d22565b60405180910390f35b3480156103b057600080fd5b506103cb60048036038101906103c6919061226c565b610c56565b6040516103d89190612d22565b60405180910390f35b3480156103ed57600080fd5b506103f6610d0e565b005b34801561040457600080fd5b5061040d610d96565b60405161041a91906129de565b60405180910390f35b34801561042f57600080fd5b50610438610dbc565b60405161044591906129c3565b60405180910390f35b34801561045a57600080fd5b506104756004803603810190610470919061248e565b610de6565b005b34801561048357600080fd5b5061048c610e78565b6040516104999190612a60565b60405180910390f35b6104bc60048036038101906104b791906124d3565b610f0a565b005b3480156104ca57600080fd5b506104e560048036038101906104e0919061239b565b6110e1565b005b3480156104f357600080fd5b5061050e60048036038101906105099190612320565b6110f7565b005b34801561051c57600080fd5b50610537600480360381019061053291906124d3565b611159565b6040516105449190612a60565b60405180910390f35b34801561055957600080fd5b506105626111d5565b60405161056f9190612d22565b60405180910390f35b34801561058457600080fd5b5061059f600480360381019061059a9190612295565b6111db565b6040516105ac9190612a45565b60405180910390f35b3480156105c157600080fd5b506105dc60048036038101906105d7919061226c565b61126f565b6040516105e99190612d22565b60405180910390f35b3480156105fe57600080fd5b506106196004803603810190610614919061226c565b611287565b005b60007f80ac58cd000000000000000000000000000000000000000000000000000000007bffffffffffffffffffffffffffffffffffffffffffffffffffffffff1916827bffffffffffffffffffffffffffffffffffffffffffffffffffffffff191614806106e657507f5b5e139f000000000000000000000000000000000000000000000000000000007bffffffffffffffffffffffffffffffffffffffffffffffffffffffff1916827bffffffffffffffffffffffffffffffffffffffffffffffffffffffff1916145b806106f657506106f58261137f565b5b9050919050565b60606000805461070c90612fd3565b80601f016020809104026020016040519081016040528092919081815260200182805461073890612fd3565b80156107855780601f1061075a57610100808354040283529160200191610785565b820191906000526020600020905b81548152906001019060200180831161076857829003601f168201915b5050505050905090565b600061079a826113e9565b6107d9576040517f08c379a00000000000000000000000000000000000000000000000000000000081526004016107d090612c42565b60405180910390fd5b6004600083815260200190815260200160002060009054906101000a900473ffffffffffffffffffffffffffffffffffffffff169050919050565b600061081f82610b9e565b90508073ffffffffffffffffffffffffffffffffffffffff168373ffffffffffffffffffffffffffffffffffffffff161415610890576040517f08c379a000000000000000000000000000000000000000000000000000000000815260040161088790612ca2565b60405180910390fd5b8073ffffffffffffffffffffffffffffffffffffffff166108af611455565b73ffffffffffffffffffffffffffffffffffffffff1614806108de57506108dd816108d8611455565b6111db565b5b61091d576040517f08c379a000000000000000000000000000000000000000000000000000000000815260040161091490612bc2565b60405180910390fd5b610927838361145d565b505050565b60085481565b61093a611455565b73ffffffffffffffffffffffffffffffffffffffff16610958610dbc565b73ffffffffffffffffffffffffffffffffffffffff16146109ae576040517f08c379a00000000000000000000000000000000000000000000000000000000081526004016109a590612c82565b60405180910390fd5b80600b60006101000a81548160ff02191690831515021790555050565b6109dc6109d6611455565b82611516565b610a1b576040517f08c379a0000000000000000000000000000000000000000000000000000000008152600401610a1290612cc2565b60405180910390fd5b610a268383836115f4565b505050565b610a33611455565b73ffffffffffffffffffffffffffffffffffffffff16610a51610dbc565b73ffffffffffffffffffffffffffffffffffffffff1614610aa7576040517f08c379a0000000000000000000000000000000000000000000000000000000008152600401610a9e90612c82565b60405180910390fd5b6000600d60009054906101000a900473ffffffffffffffffffffffffffffffffffffffff1673ffffffffffffffffffffffffffffffffffffffff1647604051610aef906129ae565b60006040518083038185875af1925050503d8060008114610b2c576040519150601f19603f3d011682016040523d82523d6000602084013e610b31565b606091505b5050905080610b75576040517f08c379a0000000000000000000000000000000000000000000000000000000008152600401610b6c90612d02565b60405180910390fd5b50565b610b93838383604051806020016040528060008152506110f7565b505050565b600a5481565b6000806002600084815260200190815260200160002060009054906101000a900473ffffffffffffffffffffffffffffffffffffffff169050600073ffffffffffffffffffffffffffffffffffffffff168173ffffffffffffffffffffffffffffffffffffffff161415610c47576040517f08c379a0000000000000000000000000000000000000000000000000000000008152600401610c3e90612c02565b60405180910390fd5b80915050919050565b60075481565b60008073ffffffffffffffffffffffffffffffffffffffff168273ffffffffffffffffffffffffffffffffffffffff161415610cc7576040517f08c379a0000000000000000000000000000000000000000000000000000000008152600401610cbe90612be2565b60405180910390fd5b600360008373ffffffffffffffffffffffffffffffffffffffff1673ffffffffffffffffffffffffffffffffffffffff168152602001908152602001600020549050919050565b610d16611455565b73ffffffffffffffffffffffffffffffffffffffff16610d34610dbc565b73ffffffffffffffffffffffffffffffffffffffff1614610d8a576040517f08c379a0000000000000000000000000000000000000000000000000000000008152600401610d8190612c82565b60405180910390fd5b610d94600061185b565b565b600d60009054906101000a900473ffffffffffffffffffffffffffffffffffffffff1681565b6000600660009054906101000a900473ffffffffffffffffffffffffffffffffffffffff16905090565b610dee611455565b73ffffffffffffffffffffffffffffffffffffffff16610e0c610dbc565b73ffffffffffffffffffffffffffffffffffffffff1614610e62576040517f08c379a0000000000000000000000000000000000000000000000000000000008152600401610e5990612c82565b60405180910390fd5b8181600c9190610e739291906120ae565b505050565b606060018054610e8790612fd3565b80601f0160208091040260200160405190810160405280929190818152602001828054610eb390612fd3565b8015610f005780601f10610ed557610100808354040283529160200191610f00565b820191906000526020600020905b815481529060010190602001808311610ee357829003601f168201915b5050505050905090565b600b60009054906101000a900460ff16610f59576040517f08c379a0000000000000000000000000000000000000000000000000000000008152600401610f5090612ac2565b60405180910390fd5b60075481610f679190612e7d565b3414610fa8576040517f08c379a0000000000000000000000000000000000000000000000000000000008152600401610f9f90612a82565b60405180910390fd5b60095481600854610fb99190612df6565b1115610ffa576040517f08c379a0000000000000000000000000000000000000000000000000000000008152600401610ff190612ba2565b60405180910390fd5b600a5481600e60003373ffffffffffffffffffffffffffffffffffffffff1673ffffffffffffffffffffffffffffffffffffffff168152602001908152602001600020546110489190612df6565b1115611089576040517f08c379a000000000000000000000000000000000000000000000000000000000815260040161108090612c62565b60405180910390fd5b60005b818110156110dd57600060016008546110a59190612df6565b9050600860008154809291906110ba90613036565b91905055506110c93382611921565b5080806110d590613036565b91505061108c565b5050565b6110f36110ec611455565b838361193f565b5050565b611108611102611455565b83611516565b611147576040517f08c379a000000000000000000000000000000000000000000000000000000000815260040161113e90612cc2565b60405180910390fd5b61115384848484611aac565b50505050565b6060611164826113e9565b6111a3576040517f08c379a000000000000000000000000000000000000000000000000000000000815260040161119a90612ce2565b60405180910390fd5b600c6111ae83611b08565b6040516020016111bf92919061297f565b6040516020818303038152906040529050919050565b60095481565b6000600560008473ffffffffffffffffffffffffffffffffffffffff1673ffffffffffffffffffffffffffffffffffffffff16815260200190815260200160002060008373ffffffffffffffffffffffffffffffffffffffff1673ffffffffffffffffffffffffffffffffffffffff16815260200190815260200160002060009054906101000a900460ff16905092915050565b600e6020528060005260406000206000915090505481565b61128f611455565b73ffffffffffffffffffffffffffffffffffffffff166112ad610dbc565b73ffffffffffffffffffffffffffffffffffffffff1614611303576040517f08c379a00000000000000000000000000000000000000000000000000000000081526004016112fa90612c82565b60405180910390fd5b600073ffffffffffffffffffffffffffffffffffffffff168173ffffffffffffffffffffffffffffffffffffffff161415611373576040517f08c379a000000000000000000000000000000000000000000000000000000000815260040161136a90612ae2565b60405180910390fd5b61137c8161185b565b50565b60007f01ffc9a7000000000000000000000000000000000000000000000000000000007bffffffffffffffffffffffffffffffffffffffffffffffffffffffff1916827bffffffffffffffffffffffffffffffffffffffffffffffffffffffff1916149050919050565b60008073ffffffffffffffffffffffffffffffffffffffff166002600084815260200190815260200160002060009054906101000a900473ffffffffffffffffffffffffffffffffffffffff1673ffffffffffffffffffffffffffffffffffffffff1614159050919050565b600033905090565b816004600083815260200190815260200160002060006101000a81548173ffffffffffffffffffffffffffffffffffffffff021916908373ffffffffffffffffffffffffffffffffffffffff160217905550808273ffffffffffffffffffffffffffffffffffffffff166114d083610b9e565b73ffffffffffffffffffffffffffffffffffffffff167f8c5be1e5ebec7d5bd14f71427d1e84f3dd0314c0f7b2291e5b200ac8c7c3b92560405160405180910390a45050565b6000611521826113e9565b611560576040517f08c379a000000000000000000000000000000000000000000000000000000000815260040161155790612b82565b60405180910390fd5b600061156b83610b9e565b90508073ffffffffffffffffffffffffffffffffffffffff168473ffffffffffffffffffffffffffffffffffffffff1614806115ad57506115ac81856111db565b5b806115eb57508373ffffffffffffffffffffffffffffffffffffffff166115d38461078f565b73ffffffffffffffffffffffffffffffffffffffff16145b91505092915050565b8273ffffffffffffffffffffffffffffffffffffffff1661161482610b9e565b73ffffffffffffffffffffffffffffffffffffffff161461166a576040517f08c379a000000000000000000000000000000000000000000000000000000000815260040161166190612b02565b60405180910390fd5b600073ffffffffffffffffffffffffffffffffffffffff168273ffffffffffffffffffffffffffffffffffffffff1614156116da576040517f08c379a00000000000000000000000000000000000000000000000000000000081526004016116d190612b42565b60405180910390fd5b6116e5838383611cb5565b6116f060008261145d565b6001600360008573ffffffffffffffffffffffffffffffffffffffff1673ffffffffffffffffffffffffffffffffffffffff16815260200190815260200160002060008282546117409190612ed7565b925050819055506001600360008473ffffffffffffffffffffffffffffffffffffffff1673ffffffffffffffffffffffffffffffffffffffff16815260200190815260200160002060008282546117979190612df6565b92505081905550816002600083815260200190815260200160002060006101000a81548173ffffffffffffffffffffffffffffffffffffffff021916908373ffffffffffffffffffffffffffffffffffffffff160217905550808273ffffffffffffffffffffffffffffffffffffffff168473ffffffffffffffffffffffffffffffffffffffff167fddf252ad1be2c89b69c2b068fc378daa952ba7f163c4a11628f55a4df523b3ef60405160405180910390a4611856838383611cba565b505050565b6000600660009054906101000a900473ffffffffffffffffffffffffffffffffffffffff16905081600660006101000a81548173ffffffffffffffffffffffffffffffffffffffff021916908373ffffffffffffffffffffffffffffffffffffffff1602179055508173ffffffffffffffffffffffffffffffffffffffff168173ffffffffffffffffffffffffffffffffffffffff167f8be0079c531659141344cd1fd0a4f28419497f9722a3daafe3b4186f6b6457e060405160405180910390a35050565b61193b828260405180602001604052806000815250611cbf565b5050565b8173ffffffffffffffffffffffffffffffffffffffff168373ffffffffffffffffffffffffffffffffffffffff1614156119ae576040517f08c379a00000000000000000000000000000000000000000000000000000000081526004016119a590612b62565b60405180910390fd5b80600560008573ffffffffffffffffffffffffffffffffffffffff1673ffffffffffffffffffffffffffffffffffffffff16815260200190815260200160002060008473ffffffffffffffffffffffffffffffffffffffff1673ffffffffffffffffffffffffffffffffffffffff16815260200190815260200160002060006101000a81548160ff0219169083151502179055508173ffffffffffffffffffffffffffffffffffffffff168373ffffffffffffffffffffffffffffffffffffffff167f17307eab39ab6107e8899845ad3d59bd9653f200f220920489ca2b5937696c3183604051611a9f9190612a45565b60405180910390a3505050565b611ab78484846115f4565b611ac384848484611d1a565b611b02576040517f08c379a0000000000000000000000000000000000000000000000000000000008152600401611af990612aa2565b60405180910390fd5b50505050565b60606000821415611b50576040518060400160405280600181526020017f30000000000000000000000000000000000000000000000000000000000000008152509050611cb0565b600082905060005b60008214611b82578080611b6b90613036565b915050600a82611b7b9190612e4c565b9150611b58565b60008167ffffffffffffffff811115611bc4577f4e487b7100000000000000000000000000000000000000000000000000000000600052604160045260246000fd5b6040519080825280601f01601f191660200182016040528015611bf65781602001600182028036833780820191505090505b5090505b60008514611ca957600182611c0f9190612ed7565b9150600a85611c1e919061307f565b6030611c2a9190612df6565b60f81b818381518110611c66577f4e487b7100000000000000000000000000000000000000000000000000000000600052603260045260246000fd5b60200101907effffffffffffffffffffffffffffffffffffffffffffffffffffffffffffff1916908160001a905350600a85611ca29190612e4c565b9450611bfa565b8093505050505b919050565b505050565b505050565b611cc98383611eb1565b611cd66000848484611d1a565b611d15576040517f08c379a0000000000000000000000000000000000000000000000000000000008152600401611d0c90612aa2565b60405180910390fd5b505050565b6000611d3b8473ffffffffffffffffffffffffffffffffffffffff1661208b565b15611ea4578373ffffffffffffffffffffffffffffffffffffffff1663150b7a02611d64611455565b8786866040518563ffffffff1660e01b8152600401611d8694939291906129f9565b602060405180830381600087803b158015611da057600080fd5b505af1925050508015611dd157506040513d601f19601f82011682018060405250810190611dce9190612465565b60015b611e54573d8060008114611e01576040519150601f19603f3d011682016040523d82523d6000602084013e611e06565b606091505b50600081511415611e4c576040517f08c379a0000000000000000000000000000000000000000000000000000000008152600401611e4390612aa2565b60405180910390fd5b805181602001fd5b63150b7a0260e01b7bffffffffffffffffffffffffffffffffffffffffffffffffffffffff1916817bffffffffffffffffffffffffffffffffffffffffffffffffffffffff191614915050611ea9565b600190505b949350505050565b600073ffffffffffffffffffffffffffffffffffffffff168273ffffffffffffffffffffffffffffffffffffffff161415611f21576040517f08c379a0000000000000000000000000000000000000000000000000000000008152600401611f1890612c22565b60405180910390fd5b611f2a816113e9565b15611f6a576040517f08c379a0000000000000000000000000000000000000000000000000000000008152600401611f6190612b22565b60405180910390fd5b611f7660008383611cb5565b6001600360008473ffffffffffffffffffffffffffffffffffffffff1673ffffffffffffffffffffffffffffffffffffffff1681526020019081526020016000206000828254611fc69190612df6565b92505081905550816002600083815260200190815260200160002060006101000a81548173ffffffffffffffffffffffffffffffffffffffff021916908373ffffffffffffffffffffffffffffffffffffffff160217905550808273ffffffffffffffffffffffffffffffffffffffff16600073ffffffffffffffffffffffffffffffffffffffff167fddf252ad1be2c89b69c2b068fc378daa952ba7f163c4a11628f55a4df523b3ef60405160405180910390a461208760008383611cba565b5050565b6000808273ffffffffffffffffffffffffffffffffffffffff163b119050919050565b8280546120ba90612fd3565b90600052602060002090601f0160209004810192826120dc5760008555612123565b82601f106120f557803560ff1916838001178555612123565b82800160010185558215612123579182015b82811115612122578235825591602001919060010190612107565b5b5090506121309190612134565b5090565b5b8082111561214d576000816000905550600101612135565b5090565b600061216461215f84612d62565b612d3d565b90508281526020810184848401111561217c57600080fd5b612187848285612f91565b509392505050565b60008135905061219e816136a8565b92915050565b6000813590506121b3816136bf565b92915050565b6000813590506121c8816136d6565b92915050565b6000815190506121dd816136d6565b92915050565b600082601f8301126121f457600080fd5b8135612204848260208601612151565b91505092915050565b60008083601f84011261221f57600080fd5b8235905067ffffffffffffffff81111561223857600080fd5b60208301915083600182028301111561225057600080fd5b9250929050565b600081359050612266816136ed565b92915050565b60006020828403121561227e57600080fd5b600061228c8482850161218f565b91505092915050565b600080604083850312156122a857600080fd5b60006122b68582860161218f565b92505060206122c78582860161218f565b9150509250929050565b6000806000606084860312156122e657600080fd5b60006122f48682870161218f565b93505060206123058682870161218f565b925050604061231686828701612257565b9150509250925092565b6000806000806080858703121561233657600080fd5b60006123448782880161218f565b94505060206123558782880161218f565b935050604061236687828801612257565b925050606085013567ffffffffffffffff81111561238357600080fd5b61238f878288016121e3565b91505092959194509250565b600080604083850312156123ae57600080fd5b60006123bc8582860161218f565b92505060206123cd858286016121a4565b9150509250929050565b600080604083850312156123ea57600080fd5b60006123f88582860161218f565b925050602061240985828601612257565b9150509250929050565b60006020828403121561242557600080fd5b6000612433848285016121a4565b91505092915050565b60006020828403121561244e57600080fd5b600061245c848285016121b9565b91505092915050565b60006020828403121561247757600080fd5b6000612485848285016121ce565b91505092915050565b600080602083850312156124a157600080fd5b600083013567ffffffffffffffff8111156124bb57600080fd5b6124c78582860161220d565b92509250509250929050565b6000602082840312156124e557600080fd5b60006124f384828501612257565b91505092915050565b61250581612f1d565b82525050565b61251481612f0b565b82525050565b61252381612f2f565b82525050565b600061253482612da8565b61253e8185612dbe565b935061254e818560208601612fa0565b6125578161316c565b840191505092915050565b600061256d82612db3565b6125778185612dda565b9350612587818560208601612fa0565b6125908161316c565b840191505092915050565b60006125a682612db3565b6125b08185612deb565b93506125c0818560208601612fa0565b80840191505092915050565b600081546125d981612fd3565b6125e38186612deb565b945060018216600081146125fe576001811461260f57612642565b60ff19831686528186019350612642565b61261885612d93565b60005b8381101561263a5781548189015260018201915060208101905061261b565b838801955050505b50505092915050565b6000612658601083612dda565b91506126638261317d565b602082019050919050565b600061267b603283612dda565b9150612686826131a6565b604082019050919050565b600061269e601383612dda565b91506126a9826131f5565b602082019050919050565b60006126c1602683612dda565b91506126cc8261321e565b604082019050919050565b60006126e4602583612dda565b91506126ef8261326d565b604082019050919050565b6000612707601c83612dda565b9150612712826132bc565b602082019050919050565b600061272a602483612dda565b9150612735826132e5565b604082019050919050565b600061274d601983612dda565b915061275882613334565b602082019050919050565b6000612770602c83612dda565b915061277b8261335d565b604082019050919050565b6000612793600883612dda565b915061279e826133ac565b602082019050919050565b60006127b6603883612dda565b91506127c1826133d5565b604082019050919050565b60006127d9602a83612dda565b91506127e482613424565b604082019050919050565b60006127fc602983612dda565b915061280782613473565b604082019050919050565b600061281f602083612dda565b915061282a826134c2565b602082019050919050565b6000612842602c83612dda565b915061284d826134eb565b604082019050919050565b6000612865600583612deb565b91506128708261353a565b600582019050919050565b6000612888601183612dda565b915061289382613563565b602082019050919050565b60006128ab602083612dda565b91506128b68261358c565b602082019050919050565b60006128ce602183612dda565b91506128d9826135b5565b604082019050919050565b60006128f1600083612dcf565b91506128fc82613604565b600082019050919050565b6000612914603183612dda565b915061291f82613607565b604082019050919050565b6000612937601583612dda565b915061294282613656565b602082019050919050565b600061295a600f83612dda565b91506129658261367f565b602082019050919050565b61297981612f87565b82525050565b600061298b82856125cc565b9150612997828461259b565b91506129a282612858565b91508190509392505050565b60006129b9826128e4565b9150819050919050565b60006020820190506129d8600083018461250b565b92915050565b60006020820190506129f360008301846124fc565b92915050565b6000608082019050612a0e600083018761250b565b612a1b602083018661250b565b612a286040830185612970565b8181036060830152612a3a8184612529565b905095945050505050565b6000602082019050612a5a600083018461251a565b92915050565b60006020820190508181036000830152612a7a8184612562565b905092915050565b60006020820190508181036000830152612a9b8161264b565b9050919050565b60006020820190508181036000830152612abb8161266e565b9050919050565b60006020820190508181036000830152612adb81612691565b9050919050565b60006020820190508181036000830152612afb816126b4565b9050919050565b60006020820190508181036000830152612b1b816126d7565b9050919050565b60006020820190508181036000830152612b3b816126fa565b9050919050565b60006020820190508181036000830152612b5b8161271d565b9050919050565b60006020820190508181036000830152612b7b81612740565b9050919050565b60006020820190508181036000830152612b9b81612763565b9050919050565b60006020820190508181036000830152612bbb81612786565b9050919050565b60006020820190508181036000830152612bdb816127a9565b9050919050565b60006020820190508181036000830152612bfb816127cc565b9050919050565b60006020820190508181036000830152612c1b816127ef565b9050919050565b60006020820190508181036000830152612c3b81612812565b9050919050565b60006020820190508181036000830152612c5b81612835565b9050919050565b60006020820190508181036000830152612c7b8161287b565b9050919050565b60006020820190508181036000830152612c9b8161289e565b9050919050565b60006020820190508181036000830152612cbb816128c1565b9050919050565b60006020820190508181036000830152612cdb81612907565b9050919050565b60006020820190508181036000830152612cfb8161292a565b9050919050565b60006020820190508181036000830152612d1b8161294d565b9050919050565b6000602082019050612d376000830184612970565b92915050565b6000612d47612d58565b9050612d538282613005565b919050565b6000604051905090565b600067ffffffffffffffff821115612d7d57612d7c61313d565b5b612d868261316c565b9050602081019050919050565b60008190508160005260206000209050919050565b600081519050919050565b600081519050919050565b600082825260208201905092915050565b600081905092915050565b600082825260208201905092915050565b600081905092915050565b6000612e0182612f87565b9150612e0c83612f87565b9250827fffffffffffffffffffffffffffffffffffffffffffffffffffffffffffffffff03821115612e4157612e406130b0565b5b828201905092915050565b6000612e5782612f87565b9150612e6283612f87565b925082612e7257612e716130df565b5b828204905092915050565b6000612e8882612f87565b9150612e9383612f87565b9250817fffffffffffffffffffffffffffffffffffffffffffffffffffffffffffffffff0483118215151615612ecc57612ecb6130b0565b5b828202905092915050565b6000612ee282612f87565b9150612eed83612f87565b925082821015612f0057612eff6130b0565b5b828203905092915050565b6000612f1682612f67565b9050919050565b6000612f2882612f67565b9050919050565b60008115159050919050565b60007fffffffff0000000000000000000000000000000000000000000000000000000082169050919050565b600073ffffffffffffffffffffffffffffffffffffffff82169050919050565b6000819050919050565b82818337600083830152505050565b60005b83811015612fbe578082015181840152602081019050612fa3565b83811115612fcd576000848401525b50505050565b60006002820490506001821680612feb57607f821691505b60208210811415612fff57612ffe61310e565b5b50919050565b61300e8261316c565b810181811067ffffffffffffffff8211171561302d5761302c61313d565b5b80604052505050565b600061304182612f87565b91507fffffffffffffffffffffffffffffffffffffffffffffffffffffffffffffffff821415613074576130736130b0565b5b600182019050919050565b600061308a82612f87565b915061309583612f87565b9250826130a5576130a46130df565b5b828206905092915050565b7f4e487b7100000000000000000000000000000000000000000000000000000000600052601160045260246000fd5b7f4e487b7100000000000000000000000000000000000000000000000000000000600052601260045260246000fd5b7f4e487b7100000000000000000000000000000000000000000000000000000000600052602260045260246000fd5b7f4e487b7100000000000000000000000000000000000000000000000000000000600052604160045260246000fd5b6000601f19601f8301169050919050565b7f77726f6e67206d696e742076616c756500000000000000000000000000000000600082015250565b7f4552433732313a207472616e7366657220746f206e6f6e20455243373231526560008201527f63656976657220696d706c656d656e7465720000000000000000000000000000602082015250565b7f6d696e74696e67206e6f7420656e61626c656400000000000000000000000000600082015250565b7f4f776e61626c653a206e6577206f776e657220697320746865207a65726f206160008201527f6464726573730000000000000000000000000000000000000000000000000000602082015250565b7f4552433732313a207472616e736665722066726f6d20696e636f72726563742060008201527f6f776e6572000000000000000000000000000000000000000000000000000000602082015250565b7f4552433732313a20746f6b656e20616c7265616479206d696e74656400000000600082015250565b7f4552433732313a207472616e7366657220746f20746865207a65726f2061646460008201527f7265737300000000000000000000000000000000000000000000000000000000602082015250565b7f4552433732313a20617070726f766520746f2063616c6c657200000000000000600082015250565b7f4552433732313a206f70657261746f7220717565727920666f72206e6f6e657860008201527f697374656e7420746f6b656e0000000000000000000000000000000000000000602082015250565b7f736f6c64206f7574000000000000000000000000000000000000000000000000600082015250565b7f4552433732313a20617070726f76652063616c6c6572206973206e6f74206f7760008201527f6e6572206e6f7220617070726f76656420666f7220616c6c0000000000000000602082015250565b7f4552433732313a2062616c616e636520717565727920666f7220746865207a6560008201527f726f206164647265737300000000000000000000000000000000000000000000602082015250565b7f4552433732313a206f776e657220717565727920666f72206e6f6e657869737460008201527f656e7420746f6b656e0000000000000000000000000000000000000000000000602082015250565b7f4552433732313a206d696e7420746f20746865207a65726f2061646472657373600082015250565b7f4552433732313a20617070726f76656420717565727920666f72206e6f6e657860008201527f697374656e7420746f6b656e0000000000000000000000000000000000000000602082015250565b7f2e6a736f6e000000000000000000000000000000000000000000000000000000600082015250565b7f657863656564206d61782077616c6c6574000000000000000000000000000000600082015250565b7f4f776e61626c653a2063616c6c6572206973206e6f7420746865206f776e6572600082015250565b7f4552433732313a20617070726f76616c20746f2063757272656e74206f776e6560008201527f7200000000000000000000000000000000000000000000000000000000000000602082015250565b50565b7f4552433732313a207472616e736665722063616c6c6572206973206e6f74206f60008201527f776e6572206e6f7220617070726f766564000000000000000000000000000000602082015250565b7f546f6b656e20646f6573206e6f74206578697374210000000000000000000000600082015250565b7f7769746864726177206661696c65640000000000000000000000000000000000600082015250565b6136b181612f0b565b81146136bc57600080fd5b50565b6136c881612f2f565b81146136d357600080fd5b50565b6136df81612f3b565b81146136ea57600080fd5b50565b6136f681612f87565b811461370157600080fd5b5056fea2646970667358221220fb33d41becaa7226018ebdb43688639f24d7f92486603aec29a5bcf2b351452264736f6c63430008040033",
  "linkReferences": {},
  "deployedLinkReferences": {}
}